{
  "address": "0x4E33ED926AB599f87380DFBA2452DB738C4Fe293",
  "abi": [
    {
      "inputs": [
        {
          "internalType": "address",
          "name": "tokenAddress",
          "type": "address"
        }
      ],
      "stateMutability": "payable",
      "type": "constructor"
    },
    {
      "anonymous": false,
      "inputs": [
        {
          "indexed": true,
          "internalType": "address",
          "name": "from",
          "type": "address"
        },
        {
          "indexed": true,
          "internalType": "uint256",
          "name": "amount",
          "type": "uint256"
        }
      ],
      "name": "Deposit",
      "type": "event"
    },
    {
      "anonymous": false,
      "inputs": [
        {
          "indexed": true,
          "internalType": "address",
          "name": "to",
          "type": "address"
        },
        {
          "indexed": true,
          "internalType": "uint256",
          "name": "amount",
          "type": "uint256"
        }
      ],
      "name": "Withdrawal",
      "type": "event"
    },
    {
      "inputs": [],
      "name": "getBalance",
      "outputs": [
        {
          "internalType": "uint256",
          "name": "",
          "type": "uint256"
        }
      ],
      "stateMutability": "view",
      "type": "function"
    },
    {
      "inputs": [],
      "name": "lockTime",
      "outputs": [
        {
          "internalType": "uint256",
          "name": "",
          "type": "uint256"
        }
      ],
      "stateMutability": "view",
      "type": "function"
    },
    {
      "inputs": [],
      "name": "requestTokens",
      "outputs": [],
      "stateMutability": "nonpayable",
      "type": "function"
    },
    {
      "inputs": [
        {
          "internalType": "uint256",
          "name": "amount",
          "type": "uint256"
        }
      ],
      "name": "setLockTime",
      "outputs": [],
      "stateMutability": "nonpayable",
      "type": "function"
    },
    {
      "inputs": [
        {
          "internalType": "uint256",
          "name": "amount",
          "type": "uint256"
        }
      ],
      "name": "setWithdrawalAmount",
      "outputs": [],
      "stateMutability": "nonpayable",
      "type": "function"
    },
    {
      "inputs": [],
      "name": "token",
      "outputs": [
        {
          "internalType": "contract IERC20",
          "name": "",
          "type": "address"
        }
      ],
      "stateMutability": "view",
      "type": "function"
    },
    {
      "inputs": [],
      "name": "withdraw",
      "outputs": [],
      "stateMutability": "nonpayable",
      "type": "function"
    },
    {
      "inputs": [],
      "name": "withdrawalAmount",
      "outputs": [
        {
          "internalType": "uint256",
          "name": "",
          "type": "uint256"
        }
      ],
      "stateMutability": "view",
      "type": "function"
    },
    {
      "stateMutability": "payable",
      "type": "receive"
    }
  ],
  "transactionHash": "0x6b5ecf4726922cfb81eb0243d081eacfd677adf4ce1901777f5c2428b516a9ff",
  "args": [
    "0x9CFfe912528B1e55d8b6471D7aE483f44eD655fB"
  ],
  "solcInputHash": "eb16ea82bc1f5ddee028203975d7ae7f",
  "bytecode": "0x608060405268056bc75e2d63100000600255603c600355604051610afc380380610afc83398101604081905261003491610062565b600180546001600160a01b039092166001600160a01b03199283161790556000805490911633179055610092565b60006020828403121561007457600080fd5b81516001600160a01b038116811461008b57600080fd5b9392505050565b610a5b806100a16000396000f3fe60806040526004361061007f5760003560e01c80633ccfd60b1161004e5780633ccfd60b1461012d578063ae04d45d14610142578063e6e268f414610162578063fc0c546a1461017857600080fd5b80630d668087146100b857806312065fe0146100e1578063168ee33a146100f6578063359cf2b71461011857600080fd5b366100b357604051349033907fe1fffcc4923d04b559f4d29a8bfc6cda04eb5b0d3c460751c2402c5c5cc9109c90600090a3005b600080fd5b3480156100c457600080fd5b506100ce60035481565b6040519081526020015b60405180910390f35b3480156100ed57600080fd5b506100ce6101ca565b34801561010257600080fd5b5061011661011136600461096b565b610262565b005b34801561012457600080fd5b50610116610326565b34801561013957600080fd5b5061011661065d565b34801561014e57600080fd5b5061011661015d36600461096b565b6108b3565b34801561016e57600080fd5b506100ce60025481565b34801561018457600080fd5b506001546101a59073ffffffffffffffffffffffffffffffffffffffff1681565b60405173ffffffffffffffffffffffffffffffffffffffff90911681526020016100d8565b6001546040517f70a0823100000000000000000000000000000000000000000000000000000000815230600482015260009173ffffffffffffffffffffffffffffffffffffffff16906370a0823190602401602060405180830381865afa158015610239573d6000803e3d6000fd5b505050506040513d601f19601f8201168201806040525081019061025d9190610984565b905090565b60005473ffffffffffffffffffffffffffffffffffffffff16331461030e576040517f08c379a000000000000000000000000000000000000000000000000000000000815260206004820152602e60248201527f4f6e6c792074686520636f6e7472616374206f776e65722063616e2063616c6c60448201527f20746869732066756e6374696f6e00000000000000000000000000000000000060648201526084015b60405180910390fd5b61032081670de0b6b3a76400006109cc565b60025550565b336103b3576040517f08c379a000000000000000000000000000000000000000000000000000000000815260206004820152602e60248201527f52657175657374206d757374206e6f74206f726967696e6174652066726f6d2060448201527f61207a65726f206163636f756e740000000000000000000000000000000000006064820152608401610305565b6002546001546040517f70a0823100000000000000000000000000000000000000000000000000000000815230600482015273ffffffffffffffffffffffffffffffffffffffff909116906370a0823190602401602060405180830381865afa158015610424573d6000803e3d6000fd5b505050506040513d601f19601f820116820180604052508101906104489190610984565b10156104d6576040517f08c379a000000000000000000000000000000000000000000000000000000000815260206004820152603560248201527f496e73756666696369656e742062616c616e636520696e20666175636574206660448201527f6f72207769746864726177616c207265717565737400000000000000000000006064820152608401610305565b3360009081526004602052604090205442101561059b576040517f08c379a000000000000000000000000000000000000000000000000000000000815260206004820152604260248201527f496e73756666696369656e742074696d6520656c61707365642073696e63652060448201527f6c617374207769746864726177616c202d2074727920616761696e206c61746560648201527f722e000000000000000000000000000000000000000000000000000000000000608482015260a401610305565b6003546105a890426109e9565b336000818152600460208190526040918290209390935560015460025491517fa9059cbb00000000000000000000000000000000000000000000000000000000815293840192909252602483015273ffffffffffffffffffffffffffffffffffffffff169063a9059cbb906044015b6020604051808303816000875af1158015610636573d6000803e3d6000fd5b505050506040513d601f19601f8201168201806040525081019061065a91906109fc565b50565b60005473ffffffffffffffffffffffffffffffffffffffff163314610704576040517f08c379a000000000000000000000000000000000000000000000000000000000815260206004820152602e60248201527f4f6e6c792074686520636f6e7472616374206f776e65722063616e2063616c6c60448201527f20746869732066756e6374696f6e0000000000000000000000000000000000006064820152608401610305565b6001546040517f70a0823100000000000000000000000000000000000000000000000000000000815230600482015273ffffffffffffffffffffffffffffffffffffffff909116906370a0823190602401602060405180830381865afa158015610772573d6000803e3d6000fd5b505050506040513d601f19601f820116820180604052508101906107969190610984565b60405133907f7fcf532c15f0a6db0bd6d0e038bea71d30d808c7d98cb3bf7268a95bf5081b6590600090a36001546040517f70a0823100000000000000000000000000000000000000000000000000000000815230600482015273ffffffffffffffffffffffffffffffffffffffff9091169063a9059cbb90339083906370a0823190602401602060405180830381865afa158015610839573d6000803e3d6000fd5b505050506040513d601f19601f8201168201806040525081019061085d9190610984565b6040517fffffffff0000000000000000000000000000000000000000000000000000000060e085901b16815273ffffffffffffffffffffffffffffffffffffffff90921660048301526024820152604401610617565b60005473ffffffffffffffffffffffffffffffffffffffff16331461095a576040517f08c379a000000000000000000000000000000000000000000000000000000000815260206004820152602e60248201527f4f6e6c792074686520636f6e7472616374206f776e65722063616e2063616c6c60448201527f20746869732066756e6374696f6e0000000000000000000000000000000000006064820152608401610305565b61096581603c6109cc565b60035550565b60006020828403121561097d57600080fd5b5035919050565b60006020828403121561099657600080fd5b5051919050565b7f4e487b7100000000000000000000000000000000000000000000000000000000600052601160045260246000fd5b80820281158282048414176109e3576109e361099d565b92915050565b808201808211156109e3576109e361099d565b600060208284031215610a0e57600080fd5b81518015158114610a1e57600080fd5b939250505056fea2646970667358221220f441bfb423a604b4e4dd89d8559a716c8833f139bfcb798a39f72b487b972ee764736f6c63430008110033",
  "devdoc": {
    "kind": "dev",
    "methods": {},
    "version": 1
  },
  "userdoc": {
    "kind": "user",
    "methods": {},
    "version": 1
  },
  "storageLayout": {
    "storage": [
      {
        "astId": 28,
        "contract": "contracts/helpers/Faucet.sol:Faucet2",
        "label": "owner",
        "offset": 0,
        "slot": "0",
        "type": "t_address_payable"
      },
      {
        "astId": 31,
        "contract": "contracts/helpers/Faucet.sol:Faucet2",
        "label": "token",
        "offset": 0,
        "slot": "1",
        "type": "t_contract(IERC20)26"
      },
      {
        "astId": 39,
        "contract": "contracts/helpers/Faucet.sol:Faucet2",
        "label": "withdrawalAmount",
        "offset": 0,
        "slot": "2",
        "type": "t_uint256"
      },
      {
        "astId": 42,
        "contract": "contracts/helpers/Faucet.sol:Faucet2",
        "label": "lockTime",
        "offset": 0,
        "slot": "3",
        "type": "t_uint256"
      },
      {
        "astId": 58,
        "contract": "contracts/helpers/Faucet.sol:Faucet2",
        "label": "nextAccessTime",
        "offset": 0,
        "slot": "4",
        "type": "t_mapping(t_address,t_uint256)"
      }
    ],
    "types": {
      "t_address": {
        "encoding": "inplace",
        "label": "address",
        "numberOfBytes": "20"
      },
      "t_address_payable": {
        "encoding": "inplace",
        "label": "address payable",
        "numberOfBytes": "20"
      },
      "t_contract(IERC20)26": {
        "encoding": "inplace",
        "label": "contract IERC20",
        "numberOfBytes": "20"
      },
      "t_mapping(t_address,t_uint256)": {
        "encoding": "mapping",
        "key": "t_address",
        "label": "mapping(address => uint256)",
        "numberOfBytes": "32",
        "value": "t_uint256"
      },
      "t_uint256": {
        "encoding": "inplace",
        "label": "uint256",
        "numberOfBytes": "32"
      }
    }
  }
}