{
  "address": "0x9CFfe912528B1e55d8b6471D7aE483f44eD655fB",
  "abi": [
    {
      "inputs": [
        {
          "internalType": "uint256",
          "name": "_totalSupply",
          "type": "uint256"
        }
      ],
      "stateMutability": "nonpayable",
      "type": "constructor"
    },
    {
      "anonymous": false,
      "inputs": [
        {
          "indexed": true,
          "internalType": "address",
          "name": "owner",
          "type": "address"
        },
        {
          "indexed": true,
          "internalType": "address",
          "name": "spender",
          "type": "address"
        },
        {
          "indexed": false,
          "internalType": "uint256",
          "name": "value",
          "type": "uint256"
        }
      ],
      "name": "Approval",
      "type": "event"
    },
    {
      "anonymous": false,
      "inputs": [
        {
          "indexed": true,
          "internalType": "address",
          "name": "previousOwner",
          "type": "address"
        },
        {
          "indexed": true,
          "internalType": "address",
          "name": "newOwner",
          "type": "address"
        }
      ],
      "name": "OwnershipTransferred",
      "type": "event"
    },
    {
      "anonymous": false,
      "inputs": [
        {
          "indexed": true,
          "internalType": "address",
          "name": "from",
          "type": "address"
        },
        {
          "indexed": true,
          "internalType": "address",
          "name": "to",
          "type": "address"
        },
        {
          "indexed": false,
          "internalType": "uint256",
          "name": "value",
          "type": "uint256"
        }
      ],
      "name": "Transfer",
      "type": "event"
    },
    {
      "inputs": [
        {
          "internalType": "address",
          "name": "owner",
          "type": "address"
        },
        {
          "internalType": "address",
          "name": "spender",
          "type": "address"
        }
      ],
      "name": "allowance",
      "outputs": [
        {
          "internalType": "uint256",
          "name": "",
          "type": "uint256"
        }
      ],
      "stateMutability": "view",
      "type": "function"
    },
    {
      "inputs": [
        {
          "internalType": "address",
          "name": "spender",
          "type": "address"
        },
        {
          "internalType": "uint256",
          "name": "amount",
          "type": "uint256"
        }
      ],
      "name": "approve",
      "outputs": [
        {
          "internalType": "bool",
          "name": "",
          "type": "bool"
        }
      ],
      "stateMutability": "nonpayable",
      "type": "function"
    },
    {
      "inputs": [
        {
          "internalType": "address",
          "name": "account",
          "type": "address"
        }
      ],
      "name": "balanceOf",
      "outputs": [
        {
          "internalType": "uint256",
          "name": "",
          "type": "uint256"
        }
      ],
      "stateMutability": "view",
      "type": "function"
    },
    {
      "inputs": [
        {
          "internalType": "address",
          "name": "_address",
          "type": "address"
        },
        {
          "internalType": "bool",
          "name": "_isBlacklisting",
          "type": "bool"
        }
      ],
      "name": "blacklist",
      "outputs": [],
      "stateMutability": "nonpayable",
      "type": "function"
    },
    {
      "inputs": [
        {
          "internalType": "address",
          "name": "",
          "type": "address"
        }
      ],
      "name": "blacklists",
      "outputs": [
        {
          "internalType": "bool",
          "name": "",
          "type": "bool"
        }
      ],
      "stateMutability": "view",
      "type": "function"
    },
    {
      "inputs": [
        {
          "internalType": "uint256",
          "name": "value",
          "type": "uint256"
        }
      ],
      "name": "burn",
      "outputs": [],
      "stateMutability": "nonpayable",
      "type": "function"
    },
    {
      "inputs": [],
      "name": "decimals",
      "outputs": [
        {
          "internalType": "uint8",
          "name": "",
          "type": "uint8"
        }
      ],
      "stateMutability": "view",
      "type": "function"
    },
    {
      "inputs": [
        {
          "internalType": "address",
          "name": "spender",
          "type": "address"
        },
        {
          "internalType": "uint256",
          "name": "subtractedValue",
          "type": "uint256"
        }
      ],
      "name": "decreaseAllowance",
      "outputs": [
        {
          "internalType": "bool",
          "name": "",
          "type": "bool"
        }
      ],
      "stateMutability": "nonpayable",
      "type": "function"
    },
    {
      "inputs": [
        {
          "internalType": "address",
          "name": "spender",
          "type": "address"
        },
        {
          "internalType": "uint256",
          "name": "addedValue",
          "type": "uint256"
        }
      ],
      "name": "increaseAllowance",
      "outputs": [
        {
          "internalType": "bool",
          "name": "",
          "type": "bool"
        }
      ],
      "stateMutability": "nonpayable",
      "type": "function"
    },
    {
      "inputs": [],
      "name": "limited",
      "outputs": [
        {
          "internalType": "bool",
          "name": "",
          "type": "bool"
        }
      ],
      "stateMutability": "view",
      "type": "function"
    },
    {
      "inputs": [],
      "name": "maxHoldingAmount",
      "outputs": [
        {
          "internalType": "uint256",
          "name": "",
          "type": "uint256"
        }
      ],
      "stateMutability": "view",
      "type": "function"
    },
    {
      "inputs": [],
      "name": "minHoldingAmount",
      "outputs": [
        {
          "internalType": "uint256",
          "name": "",
          "type": "uint256"
        }
      ],
      "stateMutability": "view",
      "type": "function"
    },
    {
      "inputs": [],
      "name": "name",
      "outputs": [
        {
          "internalType": "string",
          "name": "",
          "type": "string"
        }
      ],
      "stateMutability": "view",
      "type": "function"
    },
    {
      "inputs": [],
      "name": "owner",
      "outputs": [
        {
          "internalType": "address",
          "name": "",
          "type": "address"
        }
      ],
      "stateMutability": "view",
      "type": "function"
    },
    {
      "inputs": [],
      "name": "renounceOwnership",
      "outputs": [],
      "stateMutability": "nonpayable",
      "type": "function"
    },
    {
      "inputs": [
        {
          "internalType": "bool",
          "name": "_limited",
          "type": "bool"
        },
        {
          "internalType": "address",
          "name": "_uniswapV2Pair",
          "type": "address"
        },
        {
          "internalType": "uint256",
          "name": "_maxHoldingAmount",
          "type": "uint256"
        },
        {
          "internalType": "uint256",
          "name": "_minHoldingAmount",
          "type": "uint256"
        }
      ],
      "name": "setRule",
      "outputs": [],
      "stateMutability": "nonpayable",
      "type": "function"
    },
    {
      "inputs": [],
      "name": "symbol",
      "outputs": [
        {
          "internalType": "string",
          "name": "",
          "type": "string"
        }
      ],
      "stateMutability": "view",
      "type": "function"
    },
    {
      "inputs": [],
      "name": "totalSupply",
      "outputs": [
        {
          "internalType": "uint256",
          "name": "",
          "type": "uint256"
        }
      ],
      "stateMutability": "view",
      "type": "function"
    },
    {
      "inputs": [
        {
          "internalType": "address",
          "name": "recipient",
          "type": "address"
        },
        {
          "internalType": "uint256",
          "name": "amount",
          "type": "uint256"
        }
      ],
      "name": "transfer",
      "outputs": [
        {
          "internalType": "bool",
          "name": "",
          "type": "bool"
        }
      ],
      "stateMutability": "nonpayable",
      "type": "function"
    },
    {
      "inputs": [
        {
          "internalType": "address",
          "name": "sender",
          "type": "address"
        },
        {
          "internalType": "address",
          "name": "recipient",
          "type": "address"
        },
        {
          "internalType": "uint256",
          "name": "amount",
          "type": "uint256"
        }
      ],
      "name": "transferFrom",
      "outputs": [
        {
          "internalType": "bool",
          "name": "",
          "type": "bool"
        }
      ],
      "stateMutability": "nonpayable",
      "type": "function"
    },
    {
      "inputs": [
        {
          "internalType": "address",
          "name": "newOwner",
          "type": "address"
        }
      ],
      "name": "transferOwnership",
      "outputs": [],
      "stateMutability": "nonpayable",
      "type": "function"
    },
    {
      "inputs": [],
      "name": "uniswapV2Pair",
      "outputs": [
        {
          "internalType": "address",
          "name": "",
          "type": "address"
        }
      ],
      "stateMutability": "view",
      "type": "function"
    }
  ],
  "transactionHash": "0xabae1ad60da0fc29d24ff28cebb89252d400ccacb4311ae48c46092b5eab3cec",
  "args": [
    "420690000000000000000000000000000"
  ],
  "solcInputHash": "7d8ee99ffb691e5993dbb684b462cf15",
  "bytecode": "0x60806040523480156200001157600080fd5b5060405162001c0e38038062001c0e8339810160408190526200003491620003ea565b604051806040016040528060048152602001635065706560e01b815250604051806040016040528060048152602001635045504560e01b8152506200008862000082620000c160201b60201c565b620000c5565b6004620000968382620004a8565b506005620000a58282620004a8565b505050620000ba33826200011560201b60201c565b506200059c565b3390565b600080546001600160a01b038381166001600160a01b0319831681178455604051919092169283917f8be0079c531659141344cd1fd0a4f28419497f9722a3daafe3b4186f6b6457e09190a35050565b6001600160a01b038216620001715760405162461bcd60e51b815260206004820152601f60248201527f45524332303a206d696e7420746f20746865207a65726f20616464726573730060448201526064015b60405180910390fd5b6200017f600083836200020c565b806003600082825462000193919062000574565b90915550506001600160a01b03821660009081526001602052604081208054839290620001c290849062000574565b90915550506040518181526001600160a01b038316906000907fddf252ad1be2c89b69c2b068fc378daa952ba7f163c4a11628f55a4df523b3ef9060200160405180910390a35050565b6001600160a01b0382166000908152600a602052604090205460ff161580156200024f57506001600160a01b0383166000908152600a602052604090205460ff16155b6200028b5760405162461bcd60e51b815260206004820152600b60248201526a109b1858dadb1a5cdd195960aa1b604482015260640162000168565b6009546001600160a01b031662000319576000546001600160a01b0384811691161480620002c657506000546001600160a01b038381169116145b620003145760405162461bcd60e51b815260206004820152601660248201527f74726164696e67206973206e6f74207374617274656400000000000000000000604482015260640162000168565b505050565b60065460ff1680156200033957506009546001600160a01b038481169116145b156200031457600754816200035984620003cf60201b620002c91760201c565b62000365919062000574565b11158015620003985750600854816200038984620003cf60201b620002c91760201c565b62000395919062000574565b10155b620003145760405162461bcd60e51b8152602060048201526006602482015265119bdc989a5960d21b604482015260640162000168565b6001600160a01b031660009081526001602052604090205490565b600060208284031215620003fd57600080fd5b5051919050565b634e487b7160e01b600052604160045260246000fd5b600181811c908216806200042f57607f821691505b6020821081036200045057634e487b7160e01b600052602260045260246000fd5b50919050565b601f8211156200031457600081815260208120601f850160051c810160208610156200047f5750805b601f850160051c820191505b81811015620004a0578281556001016200048b565b505050505050565b81516001600160401b03811115620004c457620004c462000404565b620004dc81620004d584546200041a565b8462000456565b602080601f831160018114620005145760008415620004fb5750858301515b600019600386901b1c1916600185901b178555620004a0565b600085815260208120601f198616915b82811015620005455788860151825594840194600190910190840162000524565b5085821015620005645787850151600019600388901b60f8161c191681555b5050505050600190811b01905550565b808201808211156200059657634e487b7160e01b600052601160045260246000fd5b92915050565b61166280620005ac6000396000f3fe608060405234801561001057600080fd5b50600436106101825760003560e01c806349bd5a5e116100d85780638da5cb5b1161008c578063a9059cbb11610066578063a9059cbb14610348578063dd62ed3e1461035b578063f2fde38b146103a157600080fd5b80638da5cb5b1461030f57806395d89b411461032d578063a457c2d71461033557600080fd5b8063715018a6116100bd578063715018a6146102f1578063860a32ec146102f957806389f9a1d31461030657600080fd5b806349bd5a5e1461027657806370a08231146102bb57600080fd5b806323b872dd1161013a5780633aa633aa116101145780633aa633aa1461023b578063404e51291461025057806342966c681461026357600080fd5b806323b872dd14610206578063313ce56714610219578063395093511461022857600080fd5b806316c021291161016b57806316c02129146101c857806318160ddd146101eb5780631ab99e12146101fd57600080fd5b806306fdde0314610187578063095ea7b3146101a5575b600080fd5b61018f6103b4565b60405161019c919061139f565b60405180910390f35b6101b86101b3366004611434565b610446565b604051901515815260200161019c565b6101b86101d636600461145e565b600a6020526000908152604090205460ff1681565b6003545b60405190815260200161019c565b6101ef60085481565b6101b8610214366004611480565b61045d565b6040516012815260200161019c565b6101b8610236366004611434565b610548565b61024e6102493660046114cc565b610591565b005b61024e61025e36600461150e565b610690565b61024e610271366004611541565b610767565b6009546102969073ffffffffffffffffffffffffffffffffffffffff1681565b60405173ffffffffffffffffffffffffffffffffffffffff909116815260200161019c565b6101ef6102c936600461145e565b73ffffffffffffffffffffffffffffffffffffffff1660009081526001602052604090205490565b61024e610774565b6006546101b89060ff1681565b6101ef60075481565b60005473ffffffffffffffffffffffffffffffffffffffff16610296565b61018f610801565b6101b8610343366004611434565b610810565b6101b8610356366004611434565b6108e8565b6101ef61036936600461155a565b73ffffffffffffffffffffffffffffffffffffffff918216600090815260026020908152604080832093909416825291909152205490565b61024e6103af36600461145e565b6108f5565b6060600480546103c390611584565b80601f01602080910402602001604051908101604052809291908181526020018280546103ef90611584565b801561043c5780601f106104115761010080835404028352916020019161043c565b820191906000526020600020905b81548152906001019060200180831161041f57829003601f168201915b5050505050905090565b6000610453338484610a22565b5060015b92915050565b600061046a848484610bd6565b73ffffffffffffffffffffffffffffffffffffffff8416600090815260026020908152604080832033845290915290205482811015610530576040517f08c379a000000000000000000000000000000000000000000000000000000000815260206004820152602860248201527f45524332303a207472616e7366657220616d6f756e742065786365656473206160448201527f6c6c6f77616e636500000000000000000000000000000000000000000000000060648201526084015b60405180910390fd5b61053d8533858403610a22565b506001949350505050565b33600081815260026020908152604080832073ffffffffffffffffffffffffffffffffffffffff87168452909152812054909161045391859061058c908690611606565b610a22565b60005473ffffffffffffffffffffffffffffffffffffffff163314610612576040517f08c379a000000000000000000000000000000000000000000000000000000000815260206004820181905260248201527f4f776e61626c653a2063616c6c6572206973206e6f7420746865206f776e65726044820152606401610527565b600680547fffffffffffffffffffffffffffffffffffffffffffffffffffffffffffffff001694151594909417909355600980547fffffffffffffffffffffffff00000000000000000000000000000000000000001673ffffffffffffffffffffffffffffffffffffffff9390931692909217909155600755600855565b60005473ffffffffffffffffffffffffffffffffffffffff163314610711576040517f08c379a000000000000000000000000000000000000000000000000000000000815260206004820181905260248201527f4f776e61626c653a2063616c6c6572206973206e6f7420746865206f776e65726044820152606401610527565b73ffffffffffffffffffffffffffffffffffffffff919091166000908152600a6020526040902080547fffffffffffffffffffffffffffffffffffffffffffffffffffffffffffffff0016911515919091179055565b6107713382610e95565b50565b60005473ffffffffffffffffffffffffffffffffffffffff1633146107f5576040517f08c379a000000000000000000000000000000000000000000000000000000000815260206004820181905260248201527f4f776e61626c653a2063616c6c6572206973206e6f7420746865206f776e65726044820152606401610527565b6107ff600061108b565b565b6060600580546103c390611584565b33600090815260026020908152604080832073ffffffffffffffffffffffffffffffffffffffff86168452909152812054828110156108d1576040517f08c379a000000000000000000000000000000000000000000000000000000000815260206004820152602560248201527f45524332303a2064656372656173656420616c6c6f77616e63652062656c6f7760448201527f207a65726f0000000000000000000000000000000000000000000000000000006064820152608401610527565b6108de3385858403610a22565b5060019392505050565b6000610453338484610bd6565b60005473ffffffffffffffffffffffffffffffffffffffff163314610976576040517f08c379a000000000000000000000000000000000000000000000000000000000815260206004820181905260248201527f4f776e61626c653a2063616c6c6572206973206e6f7420746865206f776e65726044820152606401610527565b73ffffffffffffffffffffffffffffffffffffffff8116610a19576040517f08c379a000000000000000000000000000000000000000000000000000000000815260206004820152602660248201527f4f776e61626c653a206e6577206f776e657220697320746865207a65726f206160448201527f64647265737300000000000000000000000000000000000000000000000000006064820152608401610527565b6107718161108b565b73ffffffffffffffffffffffffffffffffffffffff8316610ac4576040517f08c379a0000000000000000000000000000000000000000000000000000000008152602060048201526024808201527f45524332303a20617070726f76652066726f6d20746865207a65726f2061646460448201527f72657373000000000000000000000000000000000000000000000000000000006064820152608401610527565b73ffffffffffffffffffffffffffffffffffffffff8216610b67576040517f08c379a000000000000000000000000000000000000000000000000000000000815260206004820152602260248201527f45524332303a20617070726f766520746f20746865207a65726f20616464726560448201527f73730000000000000000000000000000000000000000000000000000000000006064820152608401610527565b73ffffffffffffffffffffffffffffffffffffffff83811660008181526002602090815260408083209487168084529482529182902085905590518481527f8c5be1e5ebec7d5bd14f71427d1e84f3dd0314c0f7b2291e5b200ac8c7c3b92591015b60405180910390a3505050565b73ffffffffffffffffffffffffffffffffffffffff8316610c79576040517f08c379a000000000000000000000000000000000000000000000000000000000815260206004820152602560248201527f45524332303a207472616e736665722066726f6d20746865207a65726f20616460448201527f64726573730000000000000000000000000000000000000000000000000000006064820152608401610527565b73ffffffffffffffffffffffffffffffffffffffff8216610d1c576040517f08c379a000000000000000000000000000000000000000000000000000000000815260206004820152602360248201527f45524332303a207472616e7366657220746f20746865207a65726f206164647260448201527f65737300000000000000000000000000000000000000000000000000000000006064820152608401610527565b610d27838383611100565b73ffffffffffffffffffffffffffffffffffffffff831660009081526001602052604090205481811015610ddd576040517f08c379a000000000000000000000000000000000000000000000000000000000815260206004820152602660248201527f45524332303a207472616e7366657220616d6f756e742065786365656473206260448201527f616c616e636500000000000000000000000000000000000000000000000000006064820152608401610527565b73ffffffffffffffffffffffffffffffffffffffff808516600090815260016020526040808220858503905591851681529081208054849290610e21908490611606565b925050819055508273ffffffffffffffffffffffffffffffffffffffff168473ffffffffffffffffffffffffffffffffffffffff167fddf252ad1be2c89b69c2b068fc378daa952ba7f163c4a11628f55a4df523b3ef84604051610e8791815260200190565b60405180910390a350505050565b73ffffffffffffffffffffffffffffffffffffffff8216610f38576040517f08c379a000000000000000000000000000000000000000000000000000000000815260206004820152602160248201527f45524332303a206275726e2066726f6d20746865207a65726f2061646472657360448201527f73000000000000000000000000000000000000000000000000000000000000006064820152608401610527565b610f4482600083611100565b73ffffffffffffffffffffffffffffffffffffffff821660009081526001602052604090205481811015610ffa576040517f08c379a000000000000000000000000000000000000000000000000000000000815260206004820152602260248201527f45524332303a206275726e20616d6f756e7420657863656564732062616c616e60448201527f63650000000000000000000000000000000000000000000000000000000000006064820152608401610527565b73ffffffffffffffffffffffffffffffffffffffff83166000908152600160205260408120838303905560038054849290611036908490611619565b909155505060405182815260009073ffffffffffffffffffffffffffffffffffffffff8516907fddf252ad1be2c89b69c2b068fc378daa952ba7f163c4a11628f55a4df523b3ef90602001610bc9565b505050565b6000805473ffffffffffffffffffffffffffffffffffffffff8381167fffffffffffffffffffffffff0000000000000000000000000000000000000000831681178455604051919092169283917f8be0079c531659141344cd1fd0a4f28419497f9722a3daafe3b4186f6b6457e09190a35050565b73ffffffffffffffffffffffffffffffffffffffff82166000908152600a602052604090205460ff1615801561115c575073ffffffffffffffffffffffffffffffffffffffff83166000908152600a602052604090205460ff16155b6111c2576040517f08c379a000000000000000000000000000000000000000000000000000000000815260206004820152600b60248201527f426c61636b6c69737465640000000000000000000000000000000000000000006044820152606401610527565b60095473ffffffffffffffffffffffffffffffffffffffff166112885760005473ffffffffffffffffffffffffffffffffffffffff84811691161480611222575060005473ffffffffffffffffffffffffffffffffffffffff8381169116145b611086576040517f08c379a000000000000000000000000000000000000000000000000000000000815260206004820152601660248201527f74726164696e67206973206e6f742073746172746564000000000000000000006044820152606401610527565b60065460ff1680156112b4575060095473ffffffffffffffffffffffffffffffffffffffff8481169116145b1561108657600754816112e98473ffffffffffffffffffffffffffffffffffffffff1660009081526001602052604090205490565b6112f39190611606565b1115801561133957506008548161132c8473ffffffffffffffffffffffffffffffffffffffff1660009081526001602052604090205490565b6113369190611606565b10155b611086576040517f08c379a000000000000000000000000000000000000000000000000000000000815260206004820152600660248201527f466f7262696400000000000000000000000000000000000000000000000000006044820152606401610527565b600060208083528351808285015260005b818110156113cc578581018301518582016040015282016113b0565b5060006040828601015260407fffffffffffffffffffffffffffffffffffffffffffffffffffffffffffffffe0601f8301168501019250505092915050565b803573ffffffffffffffffffffffffffffffffffffffff8116811461142f57600080fd5b919050565b6000806040838503121561144757600080fd5b6114508361140b565b946020939093013593505050565b60006020828403121561147057600080fd5b6114798261140b565b9392505050565b60008060006060848603121561149557600080fd5b61149e8461140b565b92506114ac6020850161140b565b9150604084013590509250925092565b8035801515811461142f57600080fd5b600080600080608085870312156114e257600080fd5b6114eb856114bc565b93506114f96020860161140b565b93969395505050506040820135916060013590565b6000806040838503121561152157600080fd5b61152a8361140b565b9150611538602084016114bc565b90509250929050565b60006020828403121561155357600080fd5b5035919050565b6000806040838503121561156d57600080fd5b6115768361140b565b91506115386020840161140b565b600181811c9082168061159857607f821691505b6020821081036115d1577f4e487b7100000000000000000000000000000000000000000000000000000000600052602260045260246000fd5b50919050565b7f4e487b7100000000000000000000000000000000000000000000000000000000600052601160045260246000fd5b80820180821115610457576104576115d7565b81810381811115610457576104576115d756fea264697066735822122031626b5d121ca9f84c54d5f2f39f7ea58d5b74d2c2112f1a52687b6c88c78fa964736f6c63430008110033",
  "devdoc": {
    "kind": "dev",
    "methods": {
      "allowance(address,address)": {
        "details": "See {IERC20-allowance}."
      },
      "approve(address,uint256)": {
        "details": "See {IERC20-approve}. Requirements: - `spender` cannot be the zero address."
      },
      "balanceOf(address)": {
        "details": "See {IERC20-balanceOf}."
      },
      "decimals()": {
        "details": "Returns the number of decimals used to get its user representation. For example, if `decimals` equals `2`, a balance of `505` tokens should be displayed to a user as `5.05` (`505 / 10 ** 2`). Tokens usually opt for a value of 18, imitating the relationship between Ether and Wei. This is the value {ERC20} uses, unless this function is overridden; NOTE: This information is only used for _display_ purposes: it in no way affects any of the arithmetic of the contract, including {IERC20-balanceOf} and {IERC20-transfer}."
      },
      "decreaseAllowance(address,uint256)": {
        "details": "Atomically decreases the allowance granted to `spender` by the caller. This is an alternative to {approve} that can be used as a mitigation for problems described in {IERC20-approve}. Emits an {Approval} event indicating the updated allowance. Requirements: - `spender` cannot be the zero address. - `spender` must have allowance for the caller of at least `subtractedValue`."
      },
      "increaseAllowance(address,uint256)": {
        "details": "Atomically increases the allowance granted to `spender` by the caller. This is an alternative to {approve} that can be used as a mitigation for problems described in {IERC20-approve}. Emits an {Approval} event indicating the updated allowance. Requirements: - `spender` cannot be the zero address."
      },
      "name()": {
        "details": "Returns the name of the token."
      },
      "owner()": {
        "details": "Returns the address of the current owner."
      },
      "renounceOwnership()": {
        "details": "Leaves the contract without owner. It will not be possible to call `onlyOwner` functions anymore. Can only be called by the current owner. NOTE: Renouncing ownership will leave the contract without an owner, thereby removing any functionality that is only available to the owner."
      },
      "symbol()": {
        "details": "Returns the symbol of the token, usually a shorter version of the name."
      },
      "totalSupply()": {
        "details": "See {IERC20-totalSupply}."
      },
      "transfer(address,uint256)": {
        "details": "See {IERC20-transfer}. Requirements: - `recipient` cannot be the zero address. - the caller must have a balance of at least `amount`."
      },
      "transferFrom(address,address,uint256)": {
        "details": "See {IERC20-transferFrom}. Emits an {Approval} event indicating the updated allowance. This is not required by the EIP. See the note at the beginning of {ERC20}. Requirements: - `sender` and `recipient` cannot be the zero address. - `sender` must have a balance of at least `amount`. - the caller must have allowance for ``sender``'s tokens of at least `amount`."
      },
      "transferOwnership(address)": {
        "details": "Transfers ownership of the contract to a new account (`newOwner`). Can only be called by the current owner."
      }
    },
    "version": 1
  },
  "userdoc": {
    "kind": "user",
    "methods": {},
    "version": 1
  },
  "storageLayout": {
    "storage": [
      {
        "astId": 27,
        "contract": "contracts/PepeToken.sol:PepeToken",
        "label": "_owner",
        "offset": 0,
        "slot": "0",
        "type": "t_address"
      },
      {
        "astId": 236,
        "contract": "contracts/PepeToken.sol:PepeToken",
        "label": "_balances",
        "offset": 0,
        "slot": "1",
        "type": "t_mapping(t_address,t_uint256)"
      },
      {
        "astId": 242,
        "contract": "contracts/PepeToken.sol:PepeToken",
        "label": "_allowances",
        "offset": 0,
        "slot": "2",
        "type": "t_mapping(t_address,t_mapping(t_address,t_uint256))"
      },
      {
        "astId": 244,
        "contract": "contracts/PepeToken.sol:PepeToken",
        "label": "_totalSupply",
        "offset": 0,
        "slot": "3",
        "type": "t_uint256"
      },
      {
        "astId": 246,
        "contract": "contracts/PepeToken.sol:PepeToken",
        "label": "_name",
        "offset": 0,
        "slot": "4",
        "type": "t_string_storage"
      },
      {
        "astId": 248,
        "contract": "contracts/PepeToken.sol:PepeToken",
        "label": "_symbol",
        "offset": 0,
        "slot": "5",
        "type": "t_string_storage"
      },
      {
        "astId": 773,
        "contract": "contracts/PepeToken.sol:PepeToken",
        "label": "limited",
        "offset": 0,
        "slot": "6",
        "type": "t_bool"
      },
      {
        "astId": 775,
        "contract": "contracts/PepeToken.sol:PepeToken",
        "label": "maxHoldingAmount",
        "offset": 0,
        "slot": "7",
        "type": "t_uint256"
      },
      {
        "astId": 777,
        "contract": "contracts/PepeToken.sol:PepeToken",
        "label": "minHoldingAmount",
        "offset": 0,
        "slot": "8",
        "type": "t_uint256"
      },
      {
        "astId": 779,
        "contract": "contracts/PepeToken.sol:PepeToken",
        "label": "uniswapV2Pair",
        "offset": 0,
        "slot": "9",
        "type": "t_address"
      },
      {
        "astId": 783,
        "contract": "contracts/PepeToken.sol:PepeToken",
        "label": "blacklists",
        "offset": 0,
        "slot": "10",
        "type": "t_mapping(t_address,t_bool)"
      }
    ],
    "types": {
      "t_address": {
        "encoding": "inplace",
        "label": "address",
        "numberOfBytes": "20"
      },
      "t_bool": {
        "encoding": "inplace",
        "label": "bool",
        "numberOfBytes": "1"
      },
      "t_mapping(t_address,t_bool)": {
        "encoding": "mapping",
        "key": "t_address",
        "label": "mapping(address => bool)",
        "numberOfBytes": "32",
        "value": "t_bool"
      },
      "t_mapping(t_address,t_mapping(t_address,t_uint256))": {
        "encoding": "mapping",
        "key": "t_address",
        "label": "mapping(address => mapping(address => uint256))",
        "numberOfBytes": "32",
        "value": "t_mapping(t_address,t_uint256)"
      },
      "t_mapping(t_address,t_uint256)": {
        "encoding": "mapping",
        "key": "t_address",
        "label": "mapping(address => uint256)",
        "numberOfBytes": "32",
        "value": "t_uint256"
      },
      "t_string_storage": {
        "encoding": "bytes",
        "label": "string",
        "numberOfBytes": "32"
      },
      "t_uint256": {
        "encoding": "inplace",
        "label": "uint256",
        "numberOfBytes": "32"
      }
    }
  }
}